:107800000C94343C0C94463C0C94463C0C94463C02
:107810000C94463C0C94463C0C94463C0C94463CE0
:107820000C94463C0C94463C0C94463C0C94463CD0
:107830000C94463C0C94463C0C94463C0C94463CC0
:107840000C94463C0C94463C0C94463C0C94463CB0
:107850000C94463C0C94463C0C94463C0C94463CA0
:107860000C94463C0C94463C11241FBECFEFD8E04C
:10787000DEBFCDBF21E0A0E0B1E001C01D92AA3C77
:10788000B207E1F70E94103E0C94553F0C94003C67
:10789000E0E6F0E088E180831082EE27FF2709947C
:1078A00008950E94093E803239F088E1809360009B
:1078B0008EE080936000FFCF84E10C94023ECF9372
:1078C000C82F0E94093EC150E1F7CF910C94513C62
:1078D000E0E6F0E098E1908380830895A89508950C
:1078E000CF92DF92EF92FF920F931F93CF93DF938C
:1078F00000D01F92CDB7DEB76B0149838A839B838B
:107900000E946E3C23E0F60127BFE8959B818A81A7
:10791000498107B600FCFDCFDC01B601681B790B7D
:1079200021E0480F7D01E60EF71E8C9112968D0125
:1079300001501109F801308190E0932BF7010C01FF
:1079400027BFE89511244A13EDCF85E0F60187BFE4
:10795000E89507B600FCFDCF81E180935700E895DC
:10796000FFFF00000F900F900F90DF91CF911F91BC
:107970000F91FF90EF90DF90CF90089588E480936F
:10798000B80008951092BC0094EA9093BC009091C6
:10799000BC0097FFFCCF9091B900987F983011F010
:1079A00081E008958093BB0084E88093BC008091BF
:1079B000BC0087FFFCCF8091B900887F883111F02F
:1079C000803471F780E008958093BB0084E8809351
:1079D000BC008091BC0087FFFCCF9091B900987FDC
:1079E00081E0983209F480E0089584EC8093BC0033
:1079F0008091BC0087FFFCCF8091BB00089584E894
:107A00008093BC008091BC0087FFFCCF8091BB00BD
:107A10000895CF92DF92EF92FF921F93CF93DF935F
:107A200000D0CDB7DEB77A0169837A830E94C23C69
:107A3000182F69817A8181110DC06B01EC0CFD1C3E
:107A4000CE14DF0449F0F60181916F010E94E43CFD
:107A50008823B1F311E003C084E98093BC00812F37
:107A60000F900F90DF91CF911F91FF90EF90DF90DB
:107A7000CF900895AF92BF92CF92DF92FF920F9373
:107A80001F93CF93DF936B018A0181600E94C23CF8
:107A9000F82E811118C05601E8012197C5018C19F3
:107AA0009D098C179D0730F40E94F53CF5018193E8
:107AB0005F01F4CFCC0DDD1D0E94FF3C888384E97B
:107AC0008093BC0002C0FF24F3948F2DDF91CF91EF
:107AD0001F910F91FF90DF90CF90BF90AF900895CE
:107AE000AF92BF92DF92EF92FF920F931F93CF93CB
:107AF000DF931F92CDB7DEB7D42E052F79016983AE
:107B00000E94C23C182F6981882311F011E015C032
:107B1000862F0E94E43CAD2CB02EEA0CFB1CAE1468
:107B2000BF0441F0F50181915F010E94E43C88238C
:107B3000B1F3ECCF84E98093BC00812F0F90DF91EB
:107B4000CF911F910F91FF90EF90DF90BF90AF907A
:107B50000895AF92BF92CF92DF92FF920F931F933F
:107B6000CF93DF931F92CDB7DEB7F82E6A0189015C
:107B700069830E94C23C6981882319F0FF24F39431
:107B800022C0862F0E94E43C8F2D81600E94C23C5F
:107B9000F82E8111F3CF560101501109C5018C193E
:107BA0009D098017910730F40E94F53CF5018193FF
:107BB0005F01F4CFC00ED11E0E94FF3CF60180830E
:107BC00084E98093BC008F2D0F90DF91CF911F919E
:107BD0000F91FF90DF90CF90BF90AF90089584E910
:107BE0008093BC0008951092C50080E18093C4008A
:107BF00088E18093C10086E08093C20082E0809398
:107C0000C00008959091C00095FFFCCF8093C600FE
:107C100008958091C00087FFFCCF8091C600089531
:107C2000CF93DF93CDB7DEB7C350D1400FB6F894F2
:107C3000DEBF0FBECDBF84B714BE98E19093600045
:107C4000109260008D7011F00E94483C2D98259A8A
:107C50002A98229A2B9A23988FE39CE90197F1F7AF
:107C600000C000002D9A1B9985C09FEFA3EDB0E3E3
:107C70009150A040B040E1F700C000002D981B9B40
:107C80000E94483C0E94BE3C88E1809360001092B4
:107C9000600000E010E07E01E1E8EE0EF11CCE0194
:107CA00001966C01DE01AF5FBE4FCF5FDE4FB9833F
:107CB000A883C150D14080EA0E94C23C8111FBCF11
:107CC000212E812F0E94E43C302E802F0E94E43C24
:107CD00081EA0E94C23C47015601260138016C1816
:107CE0007D080E94F53CF40181934F01F201E60DFD
:107CF000F71DE491D201ED932D01CF5FDE4FE881B6
:107D0000F981C150D1408E169F0659F70E94EF3D70
:107D100080EA0E94C23C822D0E94E43C832D0E9496
:107D2000E43CD5018D915D010E94E43CAE14BF049A
:107D3000C1F70E94EF3D40E8B801C7010E94703CC6
:107D4000EFE3FFE13197F1F700C0000000581F4F4B
:107D500085B1F0E28F2785B9011520E7120709F0F8
:107D6000AACF1B9BFECF88E18093600088E08093C0
:107D70006000FFCF0E94F33D88E1809360008EE0B9
:107D8000809360000E946E3C00E010E028E1E22E4B
:107D90003EE0932E42E0C42E41E0D42E0E94093EE4
:107DA0008134D1F40E94093ECD5FDE4F8883C350F9
:107DB000D1400E94513CCD5FDE4F8881C350D140FD
:107DC000823811F482E005C0813811F486E001C0E8
:107DD00083E00E94023E65C0823411F484E103C056
:107DE000853421F485E00E945F3C5BC0853551F409
:107DF0000E94093E082F0E94093E10E0182B000F38
:107E0000111F4DC0863529F484E00E945F3C80E05C
:107E1000E0CF8436E9F40E94093E0E94093EF82E24
:107E20000E94093E82E0A82E81E0B82E8F2C8C0C97
:107E30000E94093ED5018D935D018A12F9CF0E94FF
:107E4000513C4F2DB80182E091E00E94703C29C066
:107E5000843799F40E94093E0E94093EF82E0E9440
:107E6000093E0E94513C5801F50185915F010E9435
:107E7000023EFA94F110F8CF14C0853751F40E94F5
:107E8000513C8EE10E94023E85E90E94023E8FE055
:107E9000A0CF813521F4E0926000909260000E94B2
:0E7EA000513C80E10E94023E79CFF894FFCF62
:040000030000780081
:00000001FF
